:100000000C945D000C9485000C9485000C94850084
:100010000C9485000C9485000C9485000C9485004C
:100020000C9485000C9485000C9485000C9485003C
:100030000C9485000C9485000C9485000C9485002C
:100040000C94FF010C9485000C946F020C944902EF
:100050000C9485000C9485000C9485000C9485000C
:100060000C9485000C94850000000008000201003B
:100070000003040700000000000000000000000072
:10008000250028002B0000000000240027002A0083
:10009000040404040404040402020202020203032E
:1000A0000303030301020408102040800102040836
:1000B0001020010204081020880311241FBECFEF76
:1000C000D8E0DEBFCDBF11E0A0E0B1E0EAE7F7E0A5
:1000D00002C005900D92A432B107D9F721E0A4E245
:1000E000B1E001C01D92AA3CB207E1F710E0CDE5F6
:1000F000D0E004C02197FE010E94B503CC35D107A2
:10010000C9F70E94A1020C94BB030C94000090E07C
:10011000FC01EC55FF4F249180579F4FFC018491C7
:10012000882399F090E0880F991FFC01EA57FF4F50
:10013000A591B491FC01E458FF4F859194918FB73C
:10014000F894EC91E22BEC938FBF089590E0FC01C2
:10015000E859FF4F2491FC01EC55FF4F3491FC010D
:10016000E057FF4FE491EE23C9F0222339F023300A
:1001700001F1A8F4213019F1223029F1F0E0EE0F5D
:10018000FF1FE458FF4FA591B4918FB7F894EC91FD
:10019000611126C030953E233C938FBF08952730D0
:1001A000A9F02830C9F0243049F7809180008F7D74
:1001B00003C0809180008F7780938000DFCF84B56B
:1001C0008F7784BDDBCF84B58F7DFBCF8091B0006E
:1001D0008F778093B000D2CF8091B0008F7DF9CF20
:1001E0003E2BDACFAF92BF92CF92DF92EF92FF9287
:1001F0000F931F93CF93DF936C017B018B01040F4F
:10020000151FEB015E01AE18BF08C017D10759F0EA
:100210006991D601ED91FC910190F081E02DC6012C
:100220000995892B79F7C501DF91CF911F910F9126
:10023000FF90EF90DF90CF90BF90AF900895FC01BA
:10024000538D448D252F30E0842F90E0821B930B3B
:10025000541710F0CF96089501970895FC01918DE1
:10026000828D981761F0A28DAE0FBF2FB11D5D96E4
:100270008C91928D9F5F9F73928F90E008958FEF86
:100280009FEF0895FC01918D828D981731F0828D3A
:10029000E80FF11D858D90E008958FEF9FEF089591
:1002A000FC01918D228D892F90E0805C9F4F821BF5
:1002B00091098F739927089584E291E00E9450017B
:1002C00021E0892B09F420E0822F089580E090E05E
:1002D000892B29F00E945C0181110C940000089583
:1002E000FC01A48DA80FB92FB11DA35ABF4F2C91AB
:1002F000848D90E001968F739927848FA689B789A2
:100300002C93A089B1898C91837080648C93938D98
:10031000848D981306C00288F389E02D80818F7D3B
:1003200080830895EF92FF920F931F93CF93DF93F3
:10033000EC0181E0888F9B8D8C8D98131AC0E88921
:10034000F989808185FF15C09FB7F894EE89FF89F0
:100350006083E889F98980818370806480839FBF8E
:1003600081E090E0DF91CF911F910F91FF90EF908E
:100370000895F62E0B8D10E00F5F1F4F0F7311279E
:10038000E02E8C8D8E110CC00FB607FCFACFE889D9
:10039000F989808185FFF5CFCE010E947001F1CFF0
:1003A000EB8DEC0FFD2FF11DE35AFF4FF0829FB74D
:1003B000F8940B8FEA89FB8980818062CFCFCF933D
:1003C000DF93EC01888D8823B9F0AA89BB89E8897D
:1003D000F9898C9185FD03C0808186FD0DC00FB623
:1003E00007FCF7CF8C9185FFF2CF808185FFEDCFA1
:1003F000CE010E947001E9CFDF91CF9108951F9245
:100400000F920FB60F9211242F933F938F939F93C8
:10041000AF93BF938091C6019091C701A091C8018D
:10042000B091C9013091C50123E0230F2D3758F554
:100430000196A11DB11D2093C5018093C601909323
:10044000C701A093C801B093C9018091C1019091E7
:10045000C201A091C301B091C4010196A11DB11DBB
:100460008093C1019093C201A093C301B093C401D2
:10047000BF91AF919F918F913F912F910F900FBEA0
:100480000F901F90189526E8230F0296A11DB11D0D
:10049000D2CF1F920F920FB60F9211242F933F933A
:1004A0004F935F936F937F938F939F93AF93BF937C
:1004B000EF93FF9384E291E00E947001FF91EF912E
:1004C000BF91AF919F918F917F916F915F914F916C
:1004D0003F912F910F900FBE0F901F9018951F9274
:1004E0000F920FB60F9211242F938F939F93EF9338
:1004F000FF93E0913401F09135018081E0913A0160
:10050000F0913B0182FD1BC0908180913D018F5F86
:100510008F7320913E01821741F0E0913D01F0E0A0
:10052000EC5DFE4F958F80933D01FF91EF919F9180
:100530008F912F910F900FBE0F901F901895808173
:10054000F4CF789484B5826084BD84B5816084BD25
:1005500085B5826085BD85B5816085BD80916E0061
:10056000816080936E001092810080918100826092
:1005700080938100809181008160809381008091CF
:1005800080008160809380008091B10084608093BE
:10059000B1008091B00081608093B00080917A00BA
:1005A000846080937A0080917A00826080937A00E0
:1005B00080917A00816080937A0080917A008068CF
:1005C00080937A001092C10085E00E94870086E047
:1005D0000E94870089E00E9487008AE00E948700CD
:1005E000E0913401F091350182E08083E0913001A7
:1005F000F09131011082E0913201F09133018FECE2
:10060000808310923C01E0913801F091390186E03D
:100610008083E0913601F091370180818061808391
:10062000E0913601F0913701808188608083E0910C
:100630003601F0913701808180688083E091360136
:10064000F091370180818F7D80834DE050E062E141
:1006500071E084E291E00E94F20042E050E060E24A
:1006600071E084E291E00E94F200C0E0D0E084E218
:1006700091E00E945001892B31F184E291E00E94C7
:100680002E01863471F461E085E00E94A60060E0EE
:1006900086E00E94A60061E089E00E94A60060E07A
:1006A0000FC08234C9F460E085E00E94A60061E0DA
:1006B00086E00E94A60060E089E00E94A60061E05A
:1006C0008AE00E94A600209791F20E945C01882394
:1006D00071F20E940000CBCF823531F461E085E0F9
:1006E0000E94A60060E0E4CF8C3431F460E085E045
:1006F0000E94A60061E0CCCF833529F760E085E059
:100700000E94A60060E086E00E94A60060E0C4CFE0
:10071000E4E2F1E01382128288EE93E0A0E0B0E020
:1007200084839583A683B78384E091E0918380835B
:1007300085EC90E09587848784EC90E097878687A6
:1007400080EC90E0918B808B81EC90E0938B828B9E
:1007500082EC90E0958B848B86EC90E0978B868B77
:10076000118E128E138E148E0895EE0FFF1F0590BA
:0A077000F491E02D0994F894FFCFF6
:10077A00000000009201F2001F01DF0150012E016A
:10078A004201436172726F2070726F6E746F210042
:04079A000D0A000044
:00000001FF
